:0400000017EF02F004
:08000800046ED8CF05F0E0CF33
:1000100006F00001E9CF0CF0EACF07F0E1CF08F0DD
:10002000E2CF09F0D9CF0AF0DACF0BF0F3CF12F01C
:10003000F4CF13F0FACF14F000C00EF001C00FF0AF
:1000400002C010F003C011F09DA22AEF00F09EB292
:1000500043EF01F0A0A230EF00F0A1B24BEF01F0AE
:100060000EC000F00FC001F010C002F011C003F08C
:100070000CC0E9FF07C0EAFF078E08C0E1FF09C016
:10008000E2FF0AC0D9FF0BC0DAFF12C0F3FF13C0B2
:10009000F4FF14C0FAFF045006C0E0FF05C0D8FF0B
:1000A00010000C000C00544F462D5049430045737E
:1000B00074696D756C616E646F2E2E2E00000C00DD
:1000C0008350006E00380F0B016E12000F0E951456
:1000D000F009956E8C8400008C800000F1DF01C077
:1000E00055F08C9000008C8000D000D00000E8DF3C
:1000F00001C054F08C900F0E9514956E5538006E1B
:10010000F00E001600505410016E12005538F00B1E
:10011000006E0F0E8C1400108C6E00008C80020E8E
:10012000006E002EFED700D000008C90120095903B
:10013000959295948C92CADF01C054F001BEFBD712
:100140008C9252B08C8200008C9400008C905338BA
:10015000546E0F0E541654C055F0D8DF53500F0B89
:10016000546E556ED3DF12004F2C01D003D0400ED9
:10017000506E01D0506A010E4E5C502650508009DE
:10018000516E526A536ED3DF1200EA6A4E0EE96E68
:10019000EF500DE0060E016E006A002EFED7012E14
:1001A000FBD77B0E006E002EFED7EF2EF3D712008A
:1001B0004D50070A07E00B0A0AE0060A10E0020A9F
:1001C00014E018D0010E4E6E4F6ECEDF18D0526A7A
:1001D000010E536EACDF020E4E6ED7DF10D0010E53
:1001E0004E6E020E4F6EC0DF0AD0526A100E536E72
:1001F0009EDF05D0010E526E4DC053F098DF120005
:100200000900F5520CE0F6CF4BF0F7CF4CF0F5CFEC
:100210004DF0CEDF4BC0F6FF4CC0F7FFF1D7120018
:100220001A2AD8B41B2A1A50030809E11B5207E105
:10023000929A899AA0829E0EB36E580EB26E1A5090
:1002400083081FE11B5006081CE1172A1B6A1A6A63
:100250001750040804E118A202D092928982175024
:1002600005080CE1176A929289929D92010E196E0F
:10027000BE0EF66E000EF76EC3DF03D03E2A929AD2
:10028000898A44EF01F0CCD79E9230EF00F093962C
:100290008A7650EF01F09E0EB36E580EB26EF7D70D
:1002A000A19230EF00F048656C6C6F2E2E2E00008E
:1002B000544F462D504943000C000C000C000C001C
:1002C000544F462D5049430053544F500000544F53
:1002D000462D5049430052554E00280E406E0C0EDC
:1002E000416E010E426E060E436E8C908C928C9481
:1002F0000F0E9514956E959095929594166AF2BE90
:10030000168EF29E0F0E4E6E40DF16BEF28E010E5E
:100310003F6E3F50030814E3166AF2BE168EF29E3B
:10032000030E556EF3DE16BEF28E166AF2BE168E00
:10033000F29E050E4E6E29DF16BEF28E3F2AE9D7D9
:10034000166AF2BE168EF29E020E556EDFDE16BEE5
:10035000F28E166AF2BE168EF29E050E4E6E15DFF6
:1003600016BEF28E3F6A3F50030815E3036A3F5002
:10037000400FE96E000E0320EA6EEFCF44F0166ADC
:10038000F2BE168EF29E526A44C053F0D0DE16BE04
:10039000F28E3F2AE8D75DEF02F09D82A20EF66E44
:1003A000000EF76E166AF2BE168EF29E29DF16BE9A
:1003B000F28EA40EF66E000EF76E166AF2BE168E60
:1003C000F29E1EDF16BEF28E166AF2BE168EF29EE8
:1003D000050E4E6E010E4F6EC7DE16BEF28EA60ED5
:1003E000F66E000EF76E166AF2BE168EF29E08DFEB
:1003F00016BEF28E166AF2BE168EF29E030E4E6E78
:10040000020E4F6EB1DE16BEF28EAE0EF66E000E0E
:10041000F76E166AF2BE168EF29EF2DE16BEF28EEF
:10042000020E196E1B6A1A6ACC6AACEF02F0F86A07
:10043000D09E078E176A18901892196A1B6A1A6A5A
:100440001D6A1C6A1E6A1F6A206A216A256A246A5C
:10045000236A226A296A286A276A266A2D6A2C6A10
:100460002B6A2A6A316A306A2F6A2E6A356A346AC0
:10047000336A326A396A386A376A366A3D6A3C6A70
:100480003B6A3A6A3E6AC150C00B0F09C16E070E43
:10049000B46EC00EF212780E0609CA6E050ECB6E4F
:1004A000B50EB16E080E926E070E936E92928992FF
:1004B000929A899A93968A9610D7166AF2BE168EE9
:1004C000F29E050E4E6E010E4F6E4EDE16BEF28E81
:1004D000A60EF66E020EF76E166AF2BE168EF29E2B
:1004E0008FDE16BEF28E166AF2BE168EF29E050ED4
:1004F0004E6E020E4F6E38DE16BEF28EB00EF66EE7
:10050000020EF76E166AF2BE168EF29E79DE16BEE7
:10051000F28E0A0E3F6E166AF2BE168EF29EFA0E2A
:100520004E6E33DE16BEF28E3F2EF5D7B80EF66E47
:10053000020EF76E166AF2BE168EF29E61DE16BECF
:10054000F28E938C1E6A81BC1E2A1E2C05D018A028
:1005500003D01F5201E121D71EC01FF09284206AF0
:1005600080B4202A928480A42BD0215229E11870D3
:1005700018A00ED0010E196EBA0EF66E020EF76EAE
:10058000166AF2BE168EF29E3BDE16BEF28E18D0B2
:100590009D90BC0EF66E020EF76E166AF2BE168EB7
:1005A000F29E2EDE16BEF28E196ABE0EF66E020E98
:1005B000F76E166AF2BE168EF29E22DE16BEF28E1E
:1005C00020C021F0938E81AE0ED01872020E3F6EC5
:1005D000166AF2BE168EF29EFA0E4E6ED6DD16BE6C
:1005E000F28E3F2EF5D7195003E0010A2EE059D0C4
:1005F000166AF2BE168EF29E050E4E6E010E4F6EFC
:10060000B3DD16BEF28EC00EF66E020EF76E166ADF
:10061000F2BE168EF29EF4DD16BEF28E166AF2BEA1
:10062000168EF29E060E4E6E020E4F6E9DDD16BEAB
:10063000F28EC80EF66E020EF76E166AF2BE168EB7
:10064000F29EDEDD16BEF28E2CD0166AF2BE168E3B
:10065000F29E050E4E6E010E4F6E86DD16BEF28EB8
:10066000CE0EF66E020EF76E166AF2BE168EF29E71
:10067000C7DD16BEF28E166AF2BE168EF29E070E09
:100680004E6E020E4F6E70DD16BEF28ED60EF66EF8
:10069000020EF76E166AF2BE168EF29EB1DD16BE1F
:0606A000F28E4FD70300AB
:020000040030CA
:0E00000004CC380E0087A1000FC00FE00F40A7
:00000001FF
;PIC18F4550
;CRC=3438  CREATED="24-jun.-21 18:45"
