:1000000009308A005F2900000A108A100A1182074D
:1000100028340C34013406340C004C308400831333
:100020000008031920280630F800F701F70B1628FE
:10003000F80B15287B30F700F70B1C28800B1328D2
:1000400008005318252808122628081683160812B7
:100050008312D3182D2888122E288816831688120A
:1000600083125319352808133628081783160813E6
:100070008312D3193D2888133E28881783168813C6
:1000800000008811831288150230F700F70B46280C
:1000900049280000831688118312881108008316EE
:1000A0000811831208116330F700F70B5528582800
:1000B000D0080319602883160811831208156428D4
:1000C0008316081183120811000083168811831209
:1000D0008811510ED2000F30D2055208D3002120D2
:1000E00051080F39D200D300212008000130A100AF
:1000F0008316081183120811831688118312881140
:100100002330CC000D20BE013E08023C031C902889
:100110000330D30021200530CC000D20BE0A8428F6
:100120000230D3002120BE013E08033C031CA4285A
:100130003E080420BF00D0013F08D1004F20053009
:10014000CC000D20BE0A94288A150A126F290830A7
:10015000F8000430F700F70BAB288711A011200836
:10016000831687000330F700F70BB4288312C80DFD
:100170000712031CC1282016200883168700C528F3
:100180008312201220088316870000008312A01516
:100190002008831687008312871DCC28F80BA92816
:1001A0000430F700F70BD2288711A011200883161E
:1001B0008700000083122016200883168700033072
:1001C000F700F70BE1280330F700F70BE52883125F
:1001D000A0152008831687008312871DED28F801DB
:1001E0000330F700F70BF228071A78148711A011D3
:1001F0002008831687008312071220122008831616
:100200008700831208002016200883168700043018
:10021000F700F70B09298312A01520088316870021
:100220000330F700F70B122983120712201220085F
:10023000831687000430F700F70B1C2983128711FF
:10024000A011200883168700D0308312C800A72091
:100250003E08C800A7203F08C800A7202012200899
:100260008316870000008312A015200883168700DC
:100270008312871D39290430F700F70B3D294029E7
:10028000000020162008831687000430F700F70BC3
:100290004729831208006B30BE008030BF00032165
:1002A0006430CC000D206B30BE00BF0103216430F0
:1002B000CC000D201A30BE000130BF0003210A30EF
:1002C000CC000D201B30BE00BF0103218A150A128D
:1002D000722920162008831687000430F700F70BD8
:1002E0006F298312A0152008831687000330F700BA
:1002F000F70B782983120712201220088316870033
:100300000430F700F70B822983128711A01120080F
:1003100083168700D0308312C800A7204608C80083
:10032000A72020162008831687000430F700F70B5B
:1003300097298312A0152008831687000330F70041
:10034000F70BA0298312871DA3290712201220086A
:10035000831687000430F700F70BAC29831287114E
:10036000A011200883168700D1308312C800A7206F
:10037000F7010830C9007708CA0020162008831644
:1003800087000330F700F70BC3298312A01520085C
:10039000831687008312871DCB29071A0314071EB3
:1003A0000310F80D0430F700F70BD429A011200832
:1003B0008316870083128711C90BBD2920162008D8
:1003C000831687000330F700F70BE4298312071226
:1003D0004A080319F0292012200883168700831287
:1003E0000000A0152008831687008312871DF629B8
:1003F0000430F700F70BFA298711A01120088316A3
:1004000087000330F700F70B032A8312071220122C
:1004100020088316870078088312C700201220085E
:100420008316870000008312A0152008831687001A
:100430008312871D192A0430F700F70B1D2A202A82
:10044000000020162008831687000430F700F70B01
:10045000272AFA0183124708F8007A08F9000800F1
:100460008E30F7004708F8004608F900FA01C71F68
:100470003E2AF809F909F90A0319F80AF808031DD0
:100480004B2A7908F800F9010830F702F808031D33
:100490004B2AF701542A0310F81B522AF90DF80DC4
:1004A000F7034B2AC71FF81308004A0803191A2B31
:1004B000D6004E0803191A2BD602031C642A7F307B
:1004C000D60703181A2B6A2A8130D602031C1A2B6E
:1004D00003191A2B5608F700F801F901FA01D501A2
:1004E0004B08D400D4174C08D3004D08D200193063
:1004F000D6005108D20203188D2A0130D302031806
:100500008D2AD40203188D2AD50203188D2AD50A04
:10051000D40AD30A5108D207BF2A5008D3020318BD
:10052000A82A0130D4020318A82AD5020318A82A41
:10053000D50AD40A5008D3075108D207031CBF2A92
:10054000D30A031DBF2AD40A031DBF2AD50ABF2A16
:100550004F088038D4020318BE2A0130D502031890
:10056000BE2AD50A4F088038D4075008D307031C89
:100570009C2AD40A031D9C2AD50A9C2A7A14D60BDD
:10058000C22ACD2A0310D20DD30DD40DD50D0310E0
:10059000FA0DF90DF80DD70D792A571CD52A03103D
:1005A000F80CF90CFA0CD70CD82AF70303191A2BFC
:1005B000D71B012B0310D20DD30DD40DD50D51082F
:1005C000D2020318ED2A0130D3020318ED2AD40217
:1005D0000318ED2AD502031C102B5008D302031870
:1005E000F82A0130D4020318F82AD502031C102B74
:1005F0004F088038D4020318012B0130D502031CA8
:10060000102BFA0A031D102BF90A031D102BF80AF0
:10061000031D102BF70A03191A2BF80CF90CFA0C0E
:100620004B08D6004F08D606D61F182BF8171E2BDE
:10063000F8131E2BF701F801F901FA0108003B300D
:10064000C60069217808BE003C30C60069217808E0
:10065000BF003E08C1003F08C0004108C700400875
:10066000C60030227A08C9007908C8007808C70097
:100670007708C6007A08CD007908CC007808CB004E
:100680007708CA00D101D001CF018D30CE005522AC
:100690007A08C5007908C4007808C3007708C2004A
:1006A0004208F7004308F8004408F9004508FA003A
:1006B0008A150A1275293D30C60069217808BE00E6
:1006C0003E30C60069217808BF003E08C1003F08DF
:1006D000C0004108C7004008C60030227A08C9009F
:1006E0007908C8007808C7007708C6007A08CD00E6
:1006F0007908CC007808CB007708CA00D101D00176
:10070000CF018D30CE0055227A08C5007908C4008B
:100710007808C3007708C2004208F7004308F800D1
:100720004408F9004508FA008A150A1280293F306A
:10073000C60069217808BE004030C60069217808EB
:10074000BF003E08C1003F08C0004108C700400884
:10075000C60030227A08C9007908C8007808C700A6
:100760007708C6007A08CD007908CC007808CB005D
:100770007708CA00D101D001CF018D30CE005522BB
:100780007A08C5007908C4007808C3007708C20059
:100790004208F7004308F8004408F9004508FA0049
:1007A0008A150A128B294330C60069217808BE00D9
:1007B0004430C60069217808BF003E08C1003F08E8
:1007C000C0004108C7004008C60030227A08C900AE
:1007D0007908C8007808C7007708C6007A08CD00F5
:1007E0007908CC007808CB007708CA00D101E03046
:1007F000D000CF018930CE0055227A08C500790893
:10080000C4007808C3007708C2004208F700430814
:10081000F8004408F9004508FA008A150A129629DA
:100820004530C60069217808BE004630C6006921FF
:100830007808BF003E08C1003F08C0004108C7005B
:100840004008C60030227A08C9007908C800780834
:10085000C7007708C6007A08CD007908CC00780870
:10086000CB007708CA00D101D0010330CF00863019
:10087000CE0055227A08C5007908C4007808C30064
:100880007708C2004208F7004308F8004408F9005E
:100890004508FA008A150A12A1294730C6006921C5
:1008A0007808BE004830C60069217808BF003E08BD
:1008B000C1003F08C0004108C7004008C600302200
:1008C0007A08C9007908C8007808C7007708C60008
:1008D0007A08CD007908CC007808CB007708CA00E8
:1008E000D101D0010330CF008630CE0055227A08E6
:1008F000C5007908C4007808C3007708C200420820
:10090000F7004308F8004408F9004508FA008A1582
:100910000A12AC294130C60069217808BE00423075
:10092000C60069217808BF003E08C1003F08C0002A
:100930004108C7004008C60030227A08C90079087B
:10094000C8007808C7007708C6004908CD004808E5
:10095000CC004708CB004608CA00D101D0012A309C
:10096000CF008730CE0055227A08C9007908C80028
:100970007808C7007708C60083104908CD004808EA
:10098000CC004708CB004608CA00B830D1001E3062
:10099000D0001230CF008430CE0080308318CF06D4
:1009A000D401D5014B08D3004F08D3064A080319D8
:1009B000BD2DD200F7004E080319C62DD20203192F
:1009C000622D031C202D4F08D800D8175008D700DF
:1009D0005108D600D5010310D80CD70CD60CD50C75
:1009E000D20BEA2CD31FF72C5414DA2D54105210CA
:1009F00054164D3084008313EF2D5412D31B0A2D4F
:100A0000521C152DD80CD70CD60CD50CF70A03198F
:100A1000D52D152DD81B182D0310D50DD60DD70D9E
:100A2000D80DF7030319D52D0A2D5417822D541311
:100A30004B08D300D31F1E2DD817CE2DD813CE2D83
:100A40004E08D200F7004A08D2024B08D800D81747
:100A50004C08D7004D08D600D5010310D80CD70C90
:100A6000D60CD50CD20B2C2DD31F392DD414DA2D46
:100A7000D4105210D416513084008313EF2DD412A9
:100A8000D31B4C2D521C572DD80CD70CD60CD50C83
:100A9000F70A0319D52D572DD81B5A2D0310D50D44
:100AA000D60DD70DD80DF7030319D52D4C2DD4171E
:100AB000822DD4134F08D300D31F602DD817CE2D0D
:100AC000D813CE2D4F08D800D8175008D70051089A
:100AD000D600D31F6F2DD8135415DA2D5411D5011C
:100AE00052104D3084008313EF2DD31B982D4B08EB
:100AF000D300521C822DD80CD70CD60CD50CF70A7B
:100B00000319D52DD51F932DD60A031D932DD70A72
:100B1000031D932DD80A031D932DD80CD70CD60C8A
:100B2000F70A0319D52D541B172DD41B592DB72D9A
:100B30008030D806D81FA02DDA2D4F08D300AD2D58
:100B40004B08D300D808031DAD2DD708031DAD2DCC
:100B5000D608031DAD2DF701CE2DD81BB72D0310E0
:100B6000D50DD60DD70DD80DF70BAD2DD52DD31F27
:100B7000BB2DD817CE2DD813CE2D4E08F7004F0819
:100B8000D8005008D7005108D600CE2D4A08F700EB
:100B90004B08D8004C08D7004D08D6005808F8007C
:100BA0005708F9005608FA000D2EF701F801F9016F
:100BB000FA010D2ED501D609D709D809D509D50ACC
:100BC000031DE82DD60A031DE82DD70A0319D80AFC
:100BD0005418F62CD418382D54196E2D9D2D00085C
:100BE000D607031CF92DD70A031DF92DD80A0319BE
:100BF000521484030008D707031C012ED80A0319D6
:100C0000521484030008801F803AD8070318521436
:100C1000541AFD2CD41A3F2D752D7A08C500790879
:100C2000C4007808C3007708C2004208F7004308F0
:100C3000F8004408F9004508FA008A150A12B72995
:100C40003F08C6004308C606C61F2B2E031103101B
:100C5000BF1B03145E2E3F08C6004208C7003E08B3
:100C6000C7020319392EC61F5E2E0308013A8300FE
:100C70005E2E4308C7003F08C7020319452EC61F52
:100C80005E2E0308013A83005E2E4408C700400828
:100C9000C7020319512EC61F5E2E0308013A8300B6
:100CA0005E2E4508C7004108C70203195D2EC61F06
:100CB0005E2E0308013A83005E2E031008004D08E3
:100CC000013A03196D2E033A03196F2E013A0319E5
:100CD000722E073A0319752E782ECE01792E4030E8
:100CE000CE00792E1430CE00792E5430CE00792EDD
:100CF000CE0101304C02CE074E088038CF00D00123
:100D00004F08D1004F2008004B080C3A03198F2ED2
:100D1000063A0319992E023A0319A02EA52ED001E6
:100D20000130D1004F200130A1000230CC000D2055
:100D3000AA2EA10A0130CC002108CD005F26AA2EE0
:100D4000D0011030D1004F20AA2E0130D0004B0826
:100D5000D1004F2008000C3003178D0000308F00A9
:100D600003130B08BE008B13831603178C170C1488
:100D70000000000083120313BE1B8B1703170C081F
:100D80007F390319032F0313BE0003170D08031344
:100D9000BF0003170F080313C0003E08CB008426D2
:100DA0003F0803178D000313400803178F00031338
:100DB0000B08C1008B13831603178C170C1400004B
:100DC000000083120313C11B8B1703170C0D0E0DAC
:100DD0007F390319032F0313BE0003170D080313F4
:100DE000BF0003170F080313C0003E08CB00842682
:100DF0003F0803178D000313400803178F008D0A67
:100E000003198F0AB02E03138A150A12382A831881
:100E10000C2F533084008313F701F801F901FA0114
:100E2000D301D401D501D6015208510450044F0416
:100E300003194A2F2030D7000310CB0DCC0DCD0D58
:100E4000CE0DD30DD40DD50DD60D52085602031D6F
:100E5000332F51085502031D332F50085402031D30
:100E6000332F4F085302031C442F4F08D30250085E
:100E7000031C500FD4025108031C510FD502520815
:100E8000031C520FD6020314F70DF80DF90DFA0DDD
:100E9000D70B1C2F53088000840A54088000840A52
:0C0EA00055088000840A560880000800F5
:101000000408C3004208C500031992284108CE0015
:101010004008CD003F08CC003E08CB00D201D101F2
:101020002030D0008230CF004B0803198428D30031
:101030004F0803198428D307031825287F30D302CB
:10104000031C84280319842829288130D307031816
:1010500084285308F700F801F901FA014C08D70079
:10106000D7174D08D6004E08D5001830D300D4014C
:10107000551C52285208FA07031C4428F90A031D7C
:101080004428F80A0319D4175108F907031C4B2800
:10109000F80A0319D4175008CD00CD174D08F807EA
:1010A0000318D417D40DF80CF90CFA0CD70CD60C85
:1010B000D50C0310D30B37280130F7070318842809
:1010C000F81B6928D70DFA0DF90DF80DF703031970
:1010D0008428D71F7A28FA0A031D7A28F90A031DE3
:1010E0007A28F80A031D7A28F80CF90CFA0CF70A8A
:1010F000031984284C08D4005008D406D41F822831
:10110000F8178828F8138828F701F801F901FA017F
:101110007A08C1007908C0007808BF007708BE00CF
:10112000C50B06284108CE004008CD003F08CC0082
:101130003E08CB004B08B63CCB00FA014C08CF0070
:10114000CC170310CC0CCD0CCE0CFA0CF90CF80C0F
:10115000F70CCB0BA128CF1FB828F709F809F9091C
:10116000FA09F70A0319F80A0319F90A0319FA0A1E
:101170007A08C1007908C0007808BF007708BE006F
:10118000C11FCF28C303C316BE09BF09C009C109C7
:10119000BE0A0319BF0A0319C00A0319C10A3B306A
:1011A000CA009A30C900CA30C800C7010A30C50059
:1011B00042080319C30A83143E3084008313410894
:1011C000CE004008CD003F08CC003E08CB004A08C6
:1011D000D2004908D1004808D0004708CF008A1142
:1011E00007278A157808F708031D0929420A4502CE
:1011F00003190929430803190B290F39450203195B
:10120000032903184329C31B4329431B0B292030FF
:101210003D292030C305C31E1B29C3124208031DEC
:10122000C3037708C3002D30CB008A1184268A15AA
:101230004308F700C30142084502031D2B29770824
:10124000C3002E30CB008A1184268A154308F7008C
:101250002030C30500303030C31E3D29C312420880
:10126000031DC3037708C3002D30CB008A118426E9
:101270008A154308F700C3013030F7077708CB0021
:101280008A1184268A1583104A08CE004908CD00A9
:101290004808CC004708CB00D201D101D0010A3068
:1012A000CF008A1107278A157A08CA007908C90071
:1012B0007808C8007708C700C50BDB2808000308BA
:1012C0001F398300FF30A00083161F149F141F15C1
:1012D0009F1107309C0083138A11831276288A1588
:1012E0008A114B298A158A111F2B8A157A08A500A5
:1012F0007908A4007808A3007708A2008A115B2B64
:101300008A157A08A9007908A8007808A700770844
:10131000A6008A11972B8A157A08AD007908AC00CF
:101320007808AB007708AA008A11D32B8A157A08AF
:10133000B1007908B0007808AF007708AE008A11D4
:10134000102C8A157A08B5007908B4007808B30023
:101350007708B2008A114D2C8A157A08B9007908ED
:10136000B8007808B7007708B6008A118A2C8A1569
:101370007A08BD007908BC007808BB007708BA007D
:101380002908C1002808C0002708BF002608BE00A1
:10139000CD30C500CC30C400C3007D30C2008A11FE
:1013A00020268A15031CD9298316061383120617D3
:1013B000362ACD30C100CC30C0004C30BF007D306B
:1013C000BE002908C5002808C4002708C300260855
:1013D000C2008A1120268A15031CF329831686135E
:1013E00083128617362A8F30C100C230C000753094
:1013F000BF007D30BE002508C5002408C4002308B6
:10140000C3002208C2008A1120268A15031C0D2A57
:101410008316061283120616362A2508C1002408F0
:10142000C0002308BF002208BE00CD30C500CC306C
:10143000C400C3007D30C2008A1120268A15031C17
:10144000262A8316861283128616362A83160613D8
:1014500083120613831686138312861383160612CD
:101460008312061283168612831286128A11AB2EFD
:101470008A150130CC00CD008A115F268A154130D3
:10148000CB008A1184268A157830CB008A118426F5
:101490008A153A30CB008A1184268A15C930840017
:1014A0002508C1002408C0002308BF002208BE0090
:1014B0000230C20000200130CC000230CD008A1181
:1014C0005F268A154130CB008A1184268A1579302F
:1014D000CB008A1184268A153A30CB008A118426E3
:1014E0008A15C93084002908C1002808C0002708CF
:1014F000BF002608BE000230C20000200130CC0030
:101500000330CD008A115F268A154130CB008A1145
:1015100084268A157A30CB008A1184268A153A30BF
:10152000CB008A1184268A15C93084002D08C10099
:101530002C08C0002B08BF002A08BE000230C200E1
:1015400000200130CC000430CD008A115F268A15BE
:101550005430CB008A1184268A153A30CB008A1188
:1015600084268A15893084003D08C1003C08C000EB
:101570003B08BF003A08BE000230C20000200B301A
:10158000CC000130CD008A115F268A154730CB0090
:101590008A1184268A157830CB008A1184268A1510
:1015A0003A30CB008A1184268A15C930840031086C
:1015B000C1003008C0002F08BF002E08BE00023056
:1015C000C20000200B30CC000230CD008A115F2613
:1015D0008A154730CB008A1184268A157930CB00D2
:1015E0008A1184268A153A30CB008A1184268A15FE
:1015F000C93084003508C1003408C0003308BF007A
:101600003208BE000230C20000200B30CC00033094
:10161000CD008A115F268A154730CB008A118426B7
:101620008A157A30CB008A1184268A153A30CB008D
:101630008A1184268A15C93084003908C100380807
:10164000C0003708BF003608BE000230C2000020CC
:0E165000C830CC008A110D208A157329630062
:02400E003A3F37
:00000001FF
;PIC16F877A
;CRC=B444  CREATED="21-oct-20 21:29"
