:1000000006308A001D2E00000A108A100A1182078D
:1000100028340C34013406340C004C308400831333
:100020000008031920280630F800F701F70B1628FE
:10003000F80B15287B30F700F70B1C28800B1328D2
:1000400008005318252808122628081683160812B7
:100050008312D3182D2888122E288816831688120A
:1000600083125319352808133628081783160813E6
:100070008312D3193D2888133E28881783168813C6
:1000800000008811831288150230F700F70B46280C
:1000900049280000831688118312881108008316EE
:1000A0000811831208116330F700F70B5528582800
:1000B000D0080319602883160811831208156428D4
:1000C0008316081183120811000083168811831209
:1000D0008811510ED2000F30D2055208D3002120D2
:1000E00051080F39D200D300212008000130A100AF
:1000F0008316081183120811831688118312881140
:100100002330CC000D20BE013E08023C031C902889
:100110000330D30021200530CC000D20BE0A8428F6
:100120000230D3002120BE013E08033C031CA4285A
:100130003E080420BF00D0013F08D1004F20053009
:10014000CC000D20BE0A94288A110A122C2E0830E9
:10015000F8000430F700F70BAB288711A011200836
:10016000831687000330F700F70BB4288312C80DFD
:100170000712031CC1282016200883168700C528F3
:100180008312201220088316870000008312A01516
:100190002008831687008312871DCC28F80BA92816
:1001A0000430F700F70BD2288711A011200883161E
:1001B0008700000083122016200883168700033072
:1001C000F700F70BE1280330F700F70BE52883125F
:1001D000A0152008831687008312871DED28F801DB
:1001E0000330F700F70BF228071A78148711A011D3
:1001F0002008831687008312071220122008831616
:100200008700831208002016200883168700043018
:10021000F700F70B09298312A01520088316870021
:100220000330F700F70B122983120712201220085F
:10023000831687000430F700F70B1C2983128711FF
:10024000A011200883168700D0308312C800A72091
:100250003E08C800A7203F08C800A7202012200899
:100260008316870000008312A015200883168700DC
:100270008312871D39290430F700F70B3D294029E7
:10028000000020162008831687000430F700F70BC3
:100290004729831208006B30BE008030BF00032165
:1002A0006430CC000D206B30BE00BF0103216430F0
:1002B000CC000D201A30BE000130BF0003210A30EF
:1002C000CC000D201B30BE00BF0103218A110A1291
:1002D0002D2E20162008831687000430F700F70B18
:1002E0006F298312A0152008831687000330F700BA
:1002F000F70B782983120712201220088316870033
:100300000430F700F70B822983128711A01120080F
:1003100083168700D0308312C800A7204608C80083
:10032000A72020162008831687000430F700F70B5B
:1003300097298312A0152008831687000330F70041
:10034000F70BA0298312871DA3290712201220086A
:10035000831687000430F700F70BAC29831287114E
:10036000A011200883168700D1308312C800A7206F
:10037000F7010830C9007708CA0020162008831644
:1003800087000330F700F70BC3298312A01520085C
:10039000831687008312871DCB29071A0314071EB3
:1003A0000310F80D0430F700F70BD429A011200832
:1003B0008316870083128711C90BBD2920162008D8
:1003C000831687000330F700F70BE4298312071226
:1003D0004A080319F0292012200883168700831287
:1003E0000000A0152008831687008312871DF629B8
:1003F0000430F700F70BFA298711A01120088316A3
:1004000087000330F700F70B032A8312071220122C
:1004100020088316870078088312C700201220085E
:100420008316870000008312A0152008831687001A
:100430008312871D192A0430F700F70B1D2A202A82
:10044000000020162008831687000430F700F70B01
:10045000272AFA0183124708F8007A08F9000800F1
:100460008E30F7004708F8004608F900FA01C71F68
:100470003E2AF809F909F90A0319F80AF808031DD0
:100480004B2A7908F800F9010830F702F808031D33
:100490004B2AF701542A0310F81B522AF90DF80DC4
:1004A000F7034B2AC71FF81308004A0803191A2B31
:1004B000D6004E0803191A2BD602031C642A7F307B
:1004C000D60703181A2B6A2A8130D602031C1A2B6E
:1004D00003191A2B5608F700F801F901FA01D501A2
:1004E0004B08D400D4174C08D3004D08D200193063
:1004F000D6005108D20203188D2A0130D302031806
:100500008D2AD40203188D2AD50203188D2AD50A04
:10051000D40AD30A5108D207BF2A5008D3020318BD
:10052000A82A0130D4020318A82AD5020318A82A41
:10053000D50AD40A5008D3075108D207031CBF2A92
:10054000D30A031DBF2AD40A031DBF2AD50ABF2A16
:100550004F088038D4020318BE2A0130D502031890
:10056000BE2AD50A4F088038D4075008D307031C89
:100570009C2AD40A031D9C2AD50A9C2A7A14D60BDD
:10058000C22ACD2A0310D20DD30DD40DD50D0310E0
:10059000FA0DF90DF80DD70D792A571CD52A03103D
:1005A000F80CF90CFA0CD70CD82AF70303191A2BFC
:1005B000D71B012B0310D20DD30DD40DD50D51082F
:1005C000D2020318ED2A0130D3020318ED2AD40217
:1005D0000318ED2AD502031C102B5008D302031870
:1005E000F82A0130D4020318F82AD502031C102B74
:1005F0004F088038D4020318012B0130D502031CA8
:10060000102BFA0A031D102BF90A031D102BF80AF0
:10061000031D102BF70A03191A2BF80CF90CFA0C0E
:100620004B08D6004F08D606D61F182BF8171E2BDE
:10063000F8131E2BF701F801F901FA0108003B300D
:10064000C60069217808BE003C30C60069217808E0
:10065000BF003E08C1003F08C0004108C700400875
:10066000C60030227A08C9007908C8007808C70097
:100670007708C6007A08CD007908CC007808CB004E
:100680007708CA00D101D001CF018D30CE005522AC
:100690007A08C5007908C4007808C3007708C2004A
:1006A0004208F7004308F8004408F9004508FA003A
:1006B0008A110A122E2E3D30C60069217808BE002C
:1006C0003E30C60069217808BF003E08C1003F08DF
:1006D000C0004108C7004008C60030227A08C9009F
:1006E0007908C8007808C7007708C6007A08CD00E6
:1006F0007908CC007808CB007708CA00D101D00176
:10070000CF018D30CE0055227A08C5007908C4008B
:100710007808C3007708C2004208F7004308F800D1
:100720004408F9004508FA008A110A12372E3F30B2
:10073000C60069217808BE004030C60069217808EB
:10074000BF003E08C1003F08C0004108C700400884
:10075000C60030227A08C9007908C8007808C700A6
:100760007708C6007A08CD007908CC007808CB005D
:100770007708CA00D101D001CF018D30CE005522BB
:100780007A08C5007908C4007808C3007708C20059
:100790004208F7004308F8004408F9004508FA0049
:1007A0008A110A12402E4D08013A0319E12B033A2F
:1007B0000319E32B013A0319E62B073A0319E92B36
:1007C000EC2BCE01ED2B4030CE00ED2B1430CE00C3
:1007D000ED2B5430CE00ED2BCE0101304C02CE0774
:1007E0004E088038CF00D0014F08D1004F200800BC
:1007F0004B080C3A0319032C063A03190D2C023A44
:100800000319142C192CD0010130D1004F200130D4
:10081000A1000230CC000D201E2CA10A0130CC001A
:100820002108CD00D3231E2CD0011030D1004F2041
:100830001E2C0130D0004B08D1004F2008000C3096
:1008400003178D0000308F0003130B08BE008B13BD
:10085000831603178C170C14000000008312031377
:10086000BE1B8B1703170C087F390319772C031352
:10087000BE0003170D080313BF0003170F0803136F
:10088000C0003E08CB00F8233F0803178D00031378
:10089000400803178F0003130B08C1008B13831646
:1008A00003178C170C140000000083120313C11BE4
:1008B0008B1703170C0D0E0D7F390319772C0313BB
:1008C000BE0003170D080313BF0003170F0803131F
:1008D000C0003E08CB00F8233F0803178D00031328
:1008E000400803178F008D0A03198F0A242C031365
:1008F0008A110A12492E8318802C533084008313E6
:10090000F701F801F901FA01D301D401D501D601AB
:100910005208510450044F040319BE2C2030D70054
:100920000310CB0DCC0DCD0DCE0DD30DD40DD50DAB
:10093000D60D52085602031DA72C51085502031D5F
:10094000A72C50085402031DA72C4F085302031C68
:10095000B82C4F08D3025008031C500FD402510882
:10096000031C510FD5025208031C520FD602031468
:10097000F70DF80DF90DFA0DD70B902C53088000E8
:10098000840A54088000840A55088000840A5608A6
:10099000800008000408C3004208C50003195C2D4C
:1009A0004108CE004008CD003F08CC003E08CB00F7
:1009B000D201D1012030D0008230CF004B08031982
:1009C0004E2DD3004F0803194E2DD3070318EF2CDB
:1009D0007F30D302031C4E2D03194E2DF32C813092
:1009E000D30703184E2D5308F700F801F901FA0157
:1009F0004C08D700D7174D08D6004E08D500183040
:100A0000D300D401551C1C2D5208FA07031C0E2DCF
:100A1000F90A031D0E2DF80A0319D4175108F90716
:100A2000031C152DF80A0319D4175008CD00CD1753
:100A30004D08F8070318D417D40DF80CF90CFA0C6C
:100A4000D70CD60CD50C0310D30B012D0130F707B2
:100A500003184E2DF81B332DD70DFA0DF90DF80D97
:100A6000F70303194E2DD71F442DFA0A031D442DF9
:100A7000F90A031D442DF80A031D442DF80CF90C46
:100A8000FA0CF70A03194E2D4C08D4005008D4066E
:100A9000D41F4C2DF817522DF813522DF701F801E1
:100AA000F901FA017A08C1007908C0007808BF008E
:100AB0007708BE00C50BD02C4108CE004008CD0001
:100AC0003F08CC003E08CB004B08B63CCB00FA01F7
:100AD0004C08CF00CC170310CC0CCD0CCE0CFA0C6C
:100AE000F90CF80CF70CCB0B6B2DCF1F822DF709EF
:100AF000F809F909FA09F70A0319F80A0319F90AB2
:100B00000319FA0A7A08C1007908C0007808BF0002
:100B10007708BE00C11F992DC303C316BE09BF09C4
:100B2000C009C109BE0A0319BF0A0319C00A031983
:100B3000C10A3B30CA009A30C900CA30C800C70198
:100B40000A30C50042080319C30A83143E308400EA
:100B500083134108CE004008CD003F08CC003E087A
:100B6000CB004A08D2004908D1004808D000470805
:100B7000CF007B247808F708031DD12D420A4502D7
:100B80000319D12D43080319D32D0F394502031939
:100B9000CB2D0318032EC31B032E431BD32D203054
:100BA000FF2D2030C305C31EE12DC3124208031DD3
:100BB000C3037708C3002D30CB00F8234308F700A8
:100BC000C30142084502031DEF2D7708C3002E30F4
:100BD000CB00F8234308F7002030C3050030303045
:100BE000C31EFF2DC3124208031DC3037708C300B1
:100BF0002D30CB00F8234308F700C3013030F7074E
:100C00007708CB00F82383104A08CE004908CD00AE
:100C10004808CC004708CB00D201D101D0010A30EE
:100C2000CF007B247A08CA007908C9007808C80078
:100C30007708C700C50BA52D080003081F398300DE
:100C4000FF30A00083161F149F141F159F1107303B
:100C50009C008313831276284B291F2B7A08A5004A
:100C60007908A4007808A3007708A2005B2B7A0813
:100C7000A9007908A8007808A7007708A600972B94
:100C80007A08AD007908AC007808AB007708AA00B4
:100C90001F2C0130CC00CD00D3234130CB00F823F2
:100CA0007830CB00F8233A30CB00F823C9308400E9
:100CB0002508C1002408C0002308BF002208BE0088
:100CC0000230C200CA240130CC000230CD00D32350
:100CD0004130CB00F8237930CB00F8233A30CB00F9
:100CE000F823C93084002908C1002808C00027085B
:100CF000BF002608BE000230C200CA240130CC006A
:100D00000330CD00D3234130CB00F8237A30CB0021
:100D1000F8233A30CB00F823C93084002D08C100F5
:100D20002C08C0002B08BF002A08BE000230C200F9
:0C0D3000CA24C830CC000D202D2E63001A
:02400E003A3F37
:00000001FF
;PIC16F877A
;CRC=2342  CREATED="13-abr.-21 19:45"
